:100000000C9409010C947E040C949E040C94C2057B
:100010000C9460050C9426010C9426010C94260186
:100020000C9426010C9426010C9478070C9426015C
:100030000C9426010C94960D0C9426010C94260128
:100040000C9426010C9426010C9426010C94260194
:100050000C94260154686520526F626F74206E659F
:1000600065647320746F20626520726573657474B3
:100070006564206E6F772E0A0A00596F75206E65D1
:10008000656420746F20636865636B204D6F746FC7
:100090007220617373656D626C7920286F722079AC
:1000A0006F757220736F667477617265292E0A0A04
:1000B000000A0A28732E207461736B5F6D6F746F72
:1000C00072436F6E74726F6C28292066756E63744C
:1000D000696F6E20696E205250364C696221290A80
:1000E000000A0A232323204D4F544F52204F5645D8
:1000F0005243555252454E54202323230A00596F30
:1001000075206E65656420746F20636865636B207D
:10011000456E636F6465722F4D6F746F72206173EB
:1001200073656D626C7920286F7220796F7572200B
:10013000736F667477617265292E0A0A00210A0AB4
:1001400028732E207461736B5F6D6F746F72436FD1
:100150006E74726F6C28292066756E6374696F6E99
:1001600020696E205250364C696221290A0052499A
:10017000474854004C4546540041666665637465C3
:1001800064206368616E6E656C3A000A2323232045
:10019000454E434F44455220284F52204D4F544F17
:1001A0005229204D414C46554E4354494F4E212033
:1001B0002323230A00232323232320414C4C204FB5
:1001C0005045524154494F4E532053544F5050457F
:1001D0004420544F2050524556454E5420414E59CC
:1001E0002044414D414745212023232323230A0056
:1001F0000A0A232323232320454D455247454E43D6
:10020000592053485554444F574E2023232323232A
:100210000A0011241FBECFE5D8E0DEBFCDBF10E03D
:10022000A0E6B0E0ECE0F0E202C005900D92A0374D
:10023000B107D9F711E0A0E7B0E001C01D92A231EB
:10024000B107E1F70E943F030C9405100C940000E5
:10025000089580917B00843009F46FC0853048F4A4
:10026000823061F1833008F050C0813009F0B3C0B2
:100270000AC0863009F487C0863008F467C087302A
:1002800009F0A9C0A2C084E680937600809178002E
:100290008C7F85608093780020918300243018F053
:1002A0008CED90E002C080EA90E090937A00809319
:1002B000790082E080937B002E5F62C020917800FD
:1002C00022FD89C08CE38093760080918300843086
:1002D00060F084E690E090937A0080937900236048
:1002E00020937800109283000AC02C7F2260209314
:1002F000780086E490E090937A0080937900809172
:1003000078008860809378005CC084E680937600F3
:10031000809178008C7F85608093780020918300A5
:10032000243018F08EEB90E002C086E990E09093C4
:100330007A008093790084E020C09091780092FD4B
:100340004AC08CE3809376009B6026C084E680934D
:100350007600809178008C7F856080937800209172
:100360008300243018F08EEB90E002C086E990E024
:1003700090937A008093790086E080937B002F5FD2
:100380002093830008959091780092FD24C08CE31F
:10039000809376009C7F9A60909378008091830090
:1003A000843048F08EE690E090937A008093790054
:1003B0001092830006C080E590E090937A008093CD
:1003C000790087E080937B000895809178008C709D
:1003D00011F410927B000895809198009091F5009F
:1003E000882361F0992311F081E005C080917B00A2
:1003F000823069F083E080937B000895992339F07F
:1004000080917B00823019F085E080937B00089515
:1004100080918100823009F475C0833030F48823E4
:1004200051F0813009F0B2C048C08330B1F085305E
:1004300009F0ACC095C08091E0009091D70088236E
:1004400029F0992309F49FC083E004C0992309F49B
:100450009DC082E080938100089590916600937022
:1004600080917E008C7F892B80937E008CE380932B
:100470007C0080937D008091D700882309F086C09E
:100480008091E000882309F081C08091820084304F
:1004900038F0109282001092CD001092CC0006C06D
:1004A00080E991E09093CD008093CC008091C500CD
:1004B00088608093C50085E0CDCF80917E008C7FE1
:1004C00080937E008EE180937C008AE580937D009E
:1004D0008091E000882331F08091D700882381F05B
:1004E00083E00CC084EF91E09093CD008093CC002A
:1004F0008091C50088608093C50085E0809381006D
:1005000083E026C080917E008C7F80937E008AE508
:1005100080937C008EE180937D008091E00090913B
:10052000D700882321F0992321F083E00EC099237E
:1005300071F484EF91E09093CD008093CC00809192
:10054000C50088608093C50085E08093810082E0CB
:1005500080936600809182008F5F8093820008956F
:100560008091CC009091CD00895E934078F080918D
:10057000C500877F8093C5001092CD001092CC00FB
:1005800010928100089581E0809381000895FF9288
:100590000F931F93CF93DF938C01FC01C381D48110
:1005A000F280209799F1F3FE0AC0F3E0FF2220E0E9
:1005B000AE016F2DFC0180810E94F10C23C0F2FE80
:1005C00021C0BE01882777FD8095982F0E94450F96
:1005D000D7FF06C020E030E040E857E40E94A00EBC
:1005E0002FE832EC45E75EE30E94E20E0E94280FFE
:1005F000AB01BC01F3E0FF2220E06F2DF801808108
:100600000E94610CF8011482138215C08F2D8C702A
:1006100051F48F2D83700E94D604F801618180818E
:100620000E94C40408C00E94F004882321F0F8014D
:100630008281837F8283DF91CF911F910F91FF9001
:1006400008950E9408020E94290180917B0088235E
:1006500019F086E790E010C080918100882319F09E
:100660008CE790E009C080916500882319F080E64E
:1006700090E002C080E790E00E94C70208950E94C7
:1006800057098FE30E94CA0384EC99E00E946A0D27
:1006900084E20E94CA038CEE91E00E94EC038CE598
:1006A00093E00E94F0050E9459070E944F070E94A4
:1006B00021030E94580CFBCF2091D700222341F048
:1006C0008091E000882321F084E28093970002C0AB
:1006D00010929700822F81708295807F9091970071
:1006E0009F7E982B9093970030E0222309F431E00D
:1006F000330F330F330F292F257F9091E000892F7F
:100700008170880F232B282B2093970080E099235A
:1007100009F481E02E7F282B209397000E949C03F0
:1007200008958091AC00843010F01092AC000895D0
:1007300084E08093AC00089587B38C7787BB88B33F
:100740008C7788BB2091970023FF02C0BF9AC79A7D
:1007500024FF02C0B99AC19A25FF02C0B89AC09A74
:1007600084B38F7884BB85B38F7885BB84B3922F95
:100770009295907F9077892B84BB85B3892B85BB1D
:100780009091AC00992319F4922F211191E090934C
:10079000AC000895809397000E949C030895C09830
:1007A000B898000096B38091970085FF02C0B89A70
:1007B000C09A9170892F99270895AE98A698000045
:1007C00093B38091970082FF02C0A69AAE9A90746C
:1007D000892F99270895089590936F0080936E0054
:1007E00008951F938091E4008333C8F00E94CF03E3
:1007F000182F0E94DD03982F80919800811721F413
:100800008091F500891749F0109398009093F500B6
:10081000E0916E00F0916F0009951092E4001F9135
:100820000895369B03C080E090E00895806487B906
:1008300086ED86B93699FECF349A84B195B1089584
:10084000806487B986ED86B90895369956C020919F
:100850009500233051F1243028F4213099F02230D2
:10086000E0F408C0253089F1253038F1263009F050
:1008700041C033C084B195B19093F9008093F800E2
:1008800086E407C084B195B19093FE008093FD008B
:1008900085E487B986ED86B92DC084B195B1909372
:1008A000EF008093EE0083E4F4CF84B195B1909390
:1008B000B8008093B70082E4ECCF84B195B19093F7
:1008C000DE008093DD0080E4E4CF84B195B19093A5
:1008D000EC008093EB0081E4DCCF84B195B1909380
:1008E000B6008093B50087E487B986ED86B910928B
:1008F000950008952F5F2093950008951F920F9201
:100900000FB60F9211248F939F938091F3009091D3
:10091000F40001969093F4008093F3008091E90035
:100920009091EA0001969093EA008093E9009F91EC
:100930008F910F900FBE0F901F9018951F920F92DE
:100940000FB60F9211248F939F938091E5009091A1
:10095000E60001969093E6008093E5008091BF0049
:100960009091C00001969093C0008093BF009F912A
:100970008F910F900FBE0F901F9018950895909330
:100980006D0080936C000895893C08F088EC9927ED
:1009900090939E0080939D00693C08F068EC862F40
:1009A000992790939C0080939B000895982F8093A3
:1009B0008800109284008150823018F481E0809386
:1009C0008400913019F481E090E007C020E030E02D
:1009D000933011F421E030E0C9018093850008953F
:1009E00020E030E080919600837011F421E030E047
:1009F000C901089510929E0010929D0010929C00D3
:100A000010929B001092A8001092A7001092E30091
:100A10001092E200809196008C7F809396008093E4
:100A2000F700E0916C00F0916D0009950895282F72
:100A3000633D08F062ED862F99279093BE00809366
:100A4000BD00822F233D08F082ED99279093AE00E0
:100A50008093AD0008958093860060938700809313
:100A6000840060938500882311F0AA9A01C0AA9897
:100A7000662311F0AB9A0895AB980895282F03C010
:100A800089B7806889BF8091A2008823C9F7862F23
:100A900099278F73907033272F73307046E0220FA1
:100AA000331F4A95E1F73063822B932B9093C2005A
:100AB0008093C1008091A10080648093A10008957B
:100AC0001F920F920FB60F9211242F938F939F9323
:100AD000809167008230B0F5209194002223C1F00C
:100AE0002C3338F48091DB009091DC0096FD09C036
:100AF00006C08091DB009091DC0096FF02C09798C1
:100B000003C082B3805882BB21502093940032C02E
:100B10008091A2008823A1F097988091DB009091AA
:100B2000DC00880F991F9093DC008093DB0088E73E
:100B3000809394008091A20081508093A2001AC0FB
:100B4000979818C08091A600882391F08091A10009
:100B500080FD05C088B390E4892788BB03C085B3B6
:100B6000805885BB8091A60081508093A60002C06A
:100B7000C69AAF9A9F918F912F910F900FBE0F90B1
:100B80001F9018951F920F920FB60F9211248F93FA
:100B900080916700833011F0863079F48091A10054
:100BA00084FD0BC08091A10085FF07C0B29905C0EC
:100BB0008091F6008F5F8093F60086B38091A1004C
:100BC0008D7F8093A1008F910F900FBE0F901F908B
:100BD000189508959093690080936800089508958A
:100BE00090936B0080936A0008958091B900909172
:100BF000BA00029708F42BC18091A10084FD06C1C0
:100C000080916700823009F469C0833030F4882312
:100C100071F0813009F000C111C0853009F4A6C01F
:100C2000863009F4BBC0833009F0F6C06FC089B7C5
:100C30008F7789BF9798C69AAF9AEEC08091A2002D
:100C4000882351F58091A10086FF14C08091C100D6
:100C50009091C2009093DC008093DB008EE0809343
:100C6000A2008091A1008F7B8093A10089B780684A
:100C700089BF06C089B78F7789BF9798C69AAF9A00
:100C8000809193008F5F809393008150803138F082
:100C900082E08093670003C089B7806889BF809134
:100CA000A10083FFB9C0E0916800F09169008091D4
:100CB000FA009091FB0009958091FA009091FB0059
:100CC0009093AA008093A9001092FB001092FA0062
:100CD0008091A100877F8093A1009EC089B78F7704
:100CE00089BF9798C69AAF9A1092A6001092F60004
:100CF00010929200109291008091A1008E7F8062EC
:100D00008093A10083E0809393001CC08091A60093
:100D1000882381F4809193008F5F809393008150AA
:100D2000833040F089B7806889BF8EE18093A60048
:100D3000109293008091F600843038F081E0809327
:100D4000D70085E08093670067C080919100909103
:100D500092000196909392008093910001974097A2
:100D600008F45AC01092D70085E045C089B78F7744
:100D700089BF9798C69AAF9A1092A6001092F60073
:100D800010929200109291008091A1008162809354
:100D9000A10083E08093930086E0D4CF8091A600E9
:100DA000882381F4809193008F5F8093930081501A
:100DB000833040F089B7806889BF8EE18093A600B8
:100DC000109293008091F600843030F01092F6007B
:100DD00081E08093E000B6CF8091910090919200E5
:100DE0000196909392008093910001974097A0F014
:100DF0001092E00081E08093670089B78F7789BF08
:100E00009798C69AAF9A1092A60006C010929200C8
:100E100010929100109293002091D7008091900041
:100E2000821731F490918F008091E000981759F06B
:100E3000209390008091E00080938F00E0916A0001
:100E4000F0916B0009951092BA001092B9000895C4
:100E50001092670089B78F7789BF9798C69AAF9A23
:100E60001092E0001092D700089589B78F7789BF5C
:100E70009798C69AAF9A1092E0001092D70081E03E
:100E80008093670008958E989698BB98C398C698EB
:100E9000AF9808958E9A969ABB98C39808958E98A5
:100EA0009698BB9AC39A08958E9A969ABB9AC39ABB
:100EB0000895C49A8091AC00843018F483E0809344
:100EC000AC000895C4988091AC00843080F48823ED
:100ED00019F081E090E009C020E030E080919700B7
:100EE000882311F021E030E0C9018093AC0008951F
:100EF0001F920F920FB60F9211242F933F934F938F
:100F00005F936F937F938F939F93AF93BF938091E2
:100F1000ED008F5F8093ED008091F0008F5F8093F4
:100F2000F00081508A3008F447C18091C50080FFED
:100F300009C08091C6009091C70001969093C700A8
:100F40008093C6008091C50081FF09C08091C800D0
:100F50009091C90001969093C9008093C800809138
:100F6000C50082FF09C08091CA009091CB00019614
:100F70009093CB008093CA008091C50083FF09C085
:100F80008091CC009091CD0001969093CD008093FC
:100F9000CC008091C50084FF09C08091CE00909163
:100FA000CF0001969093CF008093CE008091C50032
:100FB00085FF09C08091D0009091D1000196909357
:100FC000D1008093D0008091C50086FF09C0809138
:100FD000D2009091D30001969093D3008093D200D9
:100FE0008091C50087FF09C08091D4009091D50001
:100FF00001969093D5008093D4008091E1008F5F9B
:101000008093E1008150893CE8F08091BF0090918D
:10101000C0009093F2008093F1008091E9009091DC
:10102000EA009093B0008093AF001092C00010923D
:10103000BF001092EA001092E90081E08093AB00BB
:101040001092E1004091AC00433008F052C04230B1
:1010500081F580919700882301F580918D00909112
:101060008E009C012F5F3F4F30938E0020938D00A8
:1010700068EC70E00E94BC0F892BD9F5215A3F40E3
:1010800028F0B998C1981092AC0029C087B3842782
:1010900087BB88B3842788BB2CC084FD02C0B99865
:1010A000C19810928E0010928D0081E08093AC0068
:1010B00020C080918D0090918E002EE2813E92079B
:1010C00098F0413049F41092AC008091970084FD73
:1010D00006C0B998C19803C082E08093AC0010921A
:1010E0008E0010928D0005C0019690938E00809323
:1010F0008D008091B9009091BA00039748F48091D7
:10110000B9009091BA0001969093BA008093B9000B
:101110008091D900873318F48F5F8093D900809134
:10112000E400843328F48091E4008F5F8093E4002E
:101130008091DF008F5F8093DF0081508330D0F19A
:101140008091DA00482F55272091BD003091BE00D4
:101150004217530759F04217530714F48F5F01C029
:1011600081508093DA008091DA008ABD8091FC0082
:10117000482F55272091AD003091AE0042175307FC
:1011800059F04217530714F48F5F01C081508093C8
:10119000FC008091FC0088BD8091FC00882321F434
:1011A0008091DA00882319F082EA8FBD01C01FBC4C
:1011B0001092DF001092F0008091A10083FD52C0D8
:1011C0002091890030918A0040918B004F5F4093BD
:1011D0008B00463190F036FD09C035FF07C03093D3
:1011E000FB002093FA0088608093A1008091A10009
:1011F0008F7E8093A10020E030E090918C0086B338
:10120000892782FF24C0909590938C00473068F422
:101210008091A1008F7E8093A1008091A1008061C8
:101220008093A10020E030E00CC021153105A1F031
:101230004F3068F08091A10080618093A10036FD5D
:1012400002C0220F331F92FF216010928B00309357
:101250008A002093890006C08091A100806180935C
:10126000A100EFCFBF91AF919F918F917F916F912F
:101270005F914F913F912F910F900FBE0F901F9054
:101280001895982F1092ED008091ED008917E0F3EA
:10129000089501C0000001972FEF8F3F9207D1F70B
:1012A0000895D49ADC9A0895DC98D49808951BBACE
:1012B00018BA15BA81E082BB1ABA88E587BB8CE8F8
:1012C00084BB82EF81BBF894C598BD9A87B3979889
:1012D0000E94430710BC8CE089B91BB886E880BD2A
:1012E00088E98AB917B886E186B910BE85E085BF5E
:1012F00080EE8BBF14BE8AE083BF83E68CBF82EA98
:101300008FBD81E18EBD82ED90E097BD86BD1ABC98
:1013100018BC60E080E00E942B0589E085BD8EE668
:1013200083BD82E089BF8091A10081608093A1008C
:1013300081E080936700789408951F93182FF894A4
:1013400097980E9443071092AE001092AD00109241
:10135000BE001092BD001092A8001092A70010923B
:10136000E3001092E2001092FC001092DA001ABC26
:1013700018BC1FBC0E94620780EF91E00E94180E0B
:1013800085EB91E00E94180E812F81508230C0F4CD
:101390008BE891E00E94180E89E791E00E94180EF8
:1013A000113019F484E791E002C08EE691E00E94CA
:1013B000180E8DE391E00E94180E8EEF90E00CC0A5
:1013C000133061F481EE90E00E94180E81EB90E002
:1013D0000E94180E8AE790E00E94180E84E590E0C3
:1013E0000E94180E86E30E94CA032AE016C000007D
:1013F00001973FEF8F3F9307D1F7215071F480E0C1
:101400000E94CA032AE00CC0000001973FEF8F3F03
:101410009307D1F7215021F4E5CF8FEF9FE7E7CF76
:101420008EEF9FEFF1CF8091D900823308F47CC01A
:101430001092D9008091D600882309F041C0809194
:10144000FD009091FE008350934038F48091EE00AF
:101450009091EF0083509340F0F08091D8008F5F1F
:101460008093D8008AE08093D6001092AE0010924C
:10147000AD001092BE001092BD001092A800109214
:10148000A7001092E3001092E20080919600846021
:10149000809396000895809196008B7F80939600AC
:1014A0008091A300853628F01092D8001092A300F6
:1014B00007C08091D800833018F083E00E949D0916
:1014C0008091FD009091FE008639910598F48091FD
:1014D000AF009091B000892B69F480919D009091AC
:1014E0009E00892B39F08091FC00873918F081E04B
:1014F0000E949D098091EE009091EF008639910540
:1015000098F48091F1009091F200892B69F4809118
:101510009B0090919C00892B39F08091DA008739EB
:1015200018F082E00E949D098091AB00882309F4A5
:10153000B1C18091D600882309F0A7C18091D8005D
:10154000882331F08091A3008F5F8093A30002C0B5
:101550001092A3004091960041FF38C02091F30003
:101560003091F4008091990090919A0028173907E2
:1015700080F010929E0010929D001092A800109290
:10158000A7001092AE001092AD004D7F40939600E0
:101590001DC02091F3003091F4008091B100909132
:1015A000B2002817390790F080919D0090919E001D
:1015B0009695879590939E0080939D00469730F472
:1015C00086E190E090939E0080939D00409196006C
:1015D00040FF38C02091E5003091E6008091BB00CB
:1015E0009091BC002817390780F010929C0010924F
:1015F0009B001092E3001092E2001092BE00109245
:10160000BD004E7F409396001DC02091E5003091B3
:10161000E6008091E7009091E8002817390790F0E4
:1016200080919B0090919C009695879590939C004B
:1016300080939B00469730F486E190E090939C0065
:1016400080939B004091840080918600481739F474
:101650009091850080918700981709F479C02091B6
:101660009D0030919E002115310531F480919B0041
:1016700090919C00892B61F13093A00020939F00F2
:1016800080919B0090919C009093B4008093B30054
:1016900010929E0010929D0010929C0010929B0050
:1016A0008091A7009091A80062E070E00E94D00FA6
:1016B0007093A8006093A7008091E2009091E300EE
:1016C00062E070E00E94D00F7093E3006093E2004C
:1016D0008091F1009091F2004A97D0F48091AF0090
:1016E0009091B0004A97A0F480919D0090919E0047
:1016F000892B71F480919B0090919C00892B41F47F
:101700001092BE001092BD001092AE001092AD007B
:101710008FB58823E9F460918500842F0E942B0502
:1017200080919F009091A00090939E0080939D00D7
:101730008091B3009091B40090939C0080939B00A3
:101740001092A8001092A7001092E3001092E200FD
:1017500040919D0050919E008091AF009091B0000B
:101760009A01281B390B8091A7009091A800280F9F
:10177000391F3093A8002093A70081E0253A38074D
:101780001CF084EA91E005C02C553E4F34F48CE502
:101790009EEF9093A8008093A7008091AF00909156
:1017A000B000892B39F4452B29F41092A80010922F
:1017B000A70018C08091A7009091A80062E070E097
:1017C0000E94D00F7093AE006093AD00633D710531
:1017D0003CF082ED90E09093AE008093AD0006C0A7
:1017E00077FF04C01092AE001092AD0040919B00B4
:1017F00050919C008091F1009091F2009A01281B79
:10180000390B8091E2009091E300280F391F30934B
:10181000E3002093E20081E0253A38071CF084EAD7
:1018200091E005C02C553E4F34F48CE59EEF90932B
:10183000E3008093E2008091F1009091F200892B07
:1018400039F4452B29F41092E3001092E20018C0FD
:101850008091E2009091E30062E070E00E94D00F7E
:101860007093BE006093BD00633D71053CF082ED56
:1018700090E09093BE008093BD000AC077FF08C03F
:101880001092BE001092BD0003C081508093D6001C
:101890001092AB00909196008091F700891739F073
:1018A0009093F700E0916C00F0916D000995089518
:1018B0000E9425040E94F5050E94F1030E94130A6C
:1018C00008950F931F93CF93DF93382F162FEA01BC
:1018D000022F809196008360809396001092E8001A
:1018E0001092E7001092B2001092B100373180F0F0
:1018F000832F9927880F991F481B590BCA014497BA
:101900009093E8008093E7009093B2008093B10039
:10191000CE0102979093BC008093BB0090939A00F5
:1019200080939900C832D105B8F484E190E0909397
:10193000BC008093BB0090939A00809399008AE04A
:1019400090E09093E8008093E7009093B20080933A
:10195000B100C8E2D0E004C051E0C039D50798F426
:10196000393288F0CE0196958795969587959E0198
:10197000281B390B3093E8002093E7003093B20026
:101980002093B10038E21092F4001092F30010920C
:10199000E6001092E500632F832F0E94C404812F7C
:1019A0000E94D604D093C400C093C300D093A50076
:1019B000C093A400809196008093F700E0916C00A2
:1019C000F0916D000995002319F406C00E94580C8F
:1019D000809196008370D1F7DF91CF911F910F9185
:1019E0000895FF920F931F93CF93DF93182F062F25
:1019F000F22E809196008360809396006627772769
:101A0000CB01BA0120EB32E040E050E00E949D0F94
:101A100024E630E040E050E00E94E30FE901C90114
:101A2000845690409093E8008093E7009093B20032
:101A30008093B1003093BC002093BB0030939A0098
:101A40002093990028323105B0F484E190E090931E
:101A5000BC008093BB0090939A00809399008AE029
:101A600090E09093E8008093E7009093B200809319
:101A7000B100C8E2D0E0612F812F0E94C404802F02
:101A80000E94D6041092F4001092F3001092E60027
:101A90001092E500D093C400C093C300D093A5007A
:101AA000C093A400809196008093F700E0916C00B1
:101AB000F0916D000995FF2019F406C00E94580CA2
:101AC000809196008370D1F7DF91CF911F910F9194
:101AD000FF9008959C0106C01092ED008091ED00EA
:101AE0008A30E0F3215030408FEF2F3F3807A1F7C5
:101AF00008955D9BFECF8CB90895FC0104C05D9BE9
:101B0000FECF31968CB980818823C9F70895FC01F6
:101B1000E40FF11D05C05D9BFECF31968CB961507D
:101B20008081882311F06623B1F708951F920F92E8
:101B30000FB60F9211248F939F93EF93FF93CF9340
:101B4000DF93CDB7DEB72197DEBFCDBF8CB18983E0
:101B50008091FF00882391F490910101E92FFF27E4
:101B60008981EE5FFE4F80839F5F9093010180919A
:101B70000001981718F082E08093FF002196F894F6
:101B8000DEBFCDBFDF91CF91FF91EF919F918F91FC
:101B90000F900FBE0F901F90189510920101809327
:101BA00000011092FF0008958091FF008823E1F367
:101BB0000895AC0120E030E008C0FF27DF01AE5FF0
:101BC000BE4F8C91E40FF51F8083E22F2F5F3F4FB4
:101BD00080910001E81788F381E08093FF00089569
:101BE0001092000181E08093FF0008950F931F93EE
:101BF000CF93DF93CDB7DEB761970FB6F894DEBF12
:101C00000FBECDBF462F55278E010F5F1F4FB80166
:101C10000E946E0EC8010E947D0D61960FB6F89469
:101C2000DEBF0FBECDBFDF91CF911F910F91089501
:101C300003C05D9BFECF2CB9FC01019624912223A9
:101C4000C1F70895FF920F931F93CF93DF93CDB702
:101C5000DEB761970FB6F894DEBF0FBECDBFF42E8E
:101C60007727AB018E010F5F1F4FB8010E946E0EE8
:101C7000F80101900020E9F73197E01BF10B4F2D9F
:101C80004E1B141664F480E341505D9BFECF8CB96B
:101C90004423D1F7CE0101960E947D0D05C04195E8
:101CA0006F2DC8010E94870D61960FB6F894DEBFB4
:101CB0000FBECDBFDF91CF911F910F91FF9008957F
:101CC00010920101809300011092FF008091FF00AB
:101CD0008823E1F3CB010E94D90D0895FB019F01F8
:101CE000E8944230C4F04532B4F44A3029F497FB0A
:101CF0001EF4909581959F4F642F77270E94BC0F0B
:101D0000805D8A330CF0895D8193CB010097A1F748
:101D100016F45DE251931082C9010C948F0EDC0120
:101D2000FC01672F71917723E1F7329704C07C9112
:101D30006D9370836291AE17BF07C8F30895505832
:101D4000192ECDD001D0B0C0BA176207730784072F
:101D50009507B1F188F40EF410940B2EBA2FA02D34
:101D6000062E622F202D072E732F302D082E842F44
:101D7000402D092E952F502DFF275523B9F0591BC3
:101D800049F0573E98F0469537952795A795F0402E
:101D90005395C9F776F0BA0F621F731F841F30F492
:101DA000879577956795B795F040939517FA0F2E1D
:101DB0000895BF1BBB27BA0B620B730B840BF6CFC6
:101DC000DEF6B9C08CD001D06FC0552359F09923ED
:101DD00069F09F575F57951B33F442F4903811F424
:101DE000915805C079C091589F3F09F4A4C0BB2702
:101DF000112462177307840730F4660F771F881F5A
:101E0000BB1F915098F311D00F920FD00F920DD0AD
:101E1000A0E82617370748071B0609F0A048BA2F85
:101E2000602D7F918F9100240895A0E8002462170F
:101E300073078407B10528F0621B730B840BB1098B
:101E40000A2A660F771F881FBB1FA69581F7089582
:101E500097FB51D09F3738F0FEE9F91B982F872F59
:101E6000762F6B2F05C064C09695879577956795FB
:101E7000F150D0F73EF490958095709561957F4F25
:101E80008F4F9F4F0895E89403C097FB0EF4F3DF44
:101E9000B62F672F782F892F9EE9002405C09A95C9
:101EA000BB0F661F771F881F11249923A1F0882379
:101EB000B2F79F3F59F0BB0F48F421F4002011F412
:101EC00060FF04C06F5F7F4F8F4F9F4F881F9795B4
:101ED000879597F908952CC09FEF80EC0895052E03
:101EE000092607FA440F551F5F3F79F0AA27A51767
:101EF00008F051E04795880F991F9F3F31F0BB27AD
:101F0000B91708F091E0879508959F919F9111244A
:101F1000E3CF97FB880F991F9F3F31F0BB27B9177D
:101F200008F091E0879508959F919F911124D4CF57
:101F300066277727882799270895629FD001739F86
:101F4000F001829FE00DF11D649FE00DF11D929F55
:101F5000F00D839FF00D749FF00D659FF00D992794
:101F6000729FB00DE11DF91F639FB00DE11DF91FB8
:101F7000BD01CF0111240895AA1BBB1B51E107C06D
:101F8000AA1FBB1FA617B70710F0A61BB70B881F09
:101F9000991F5A95A9F780959095BC01CD01089598
:101FA00097FB092E07260AD077FD04D0E5DF06D07F
:101FB00000201AF4709561957F4F0895F6F790957B
:101FC00081959F4F0895A1E21A2EAA1BBB1BFD010C
:101FD0000DC0AA1FBB1FEE1FFF1FA217B307E40708
:101FE000F50720F0A21BB30BE40BF50B661F771F60
:101FF000881F991F1A9469F7609570958095909540
:0C2000009B01AC01BD01CF010895FFCF92
:10200C006464000000010201E905EF05BE04EB0366
:00000001FF
