:100000000C9424010C94B0020C94D0020C94F403D0
:100010000C9492030C9441010C9441010C94410105
:100020000C9441010C9441010C94AA050C944101DB
:100030000C9441010C94C80B0C9441010C944101A7
:100040000C9441010C9441010C9441010C94410128
:100050000C9441010A000A44656275742050726F65
:100060006772616D6D650A000A4A757374206120BC
:1000700073696D706C6520636F756E746572207046
:10008000726F6772616D0A0A0054686520526F6270
:100090006F74206E6565647320746F2062652072D2
:1000A00065736574746564206E6F772E0A0A005953
:1000B0006F75206E65656420746F20636865636B7F
:1000C000204D6F746F7220617373656D626C79205F
:1000D000286F7220796F757220736F667477617202
:1000E00065292E0A0A000A0A28732E207461736B90
:1000F0005F6D6F746F72436F6E74726F6C2829201E
:1001000066756E6374696F6E20696E205250364C4E
:10011000696221290A000A0A232323204D4F544FE4
:1001200052204F56455243555252454E5420232398
:10013000230A00596F75206E65656420746F206313
:100140006865636B20456E636F6465722F4D6F74D5
:100150006F7220617373656D626C7920286F7220F5
:10016000796F757220736F667477617265292E0AD4
:100170000A00210A0A28732E207461736B5F6D6F69
:10018000746F72436F6E74726F6C28292066756E7F
:100190006374696F6E20696E205250364C6962211B
:1001A000290A005249474854004C454654004166CC
:1001B000666563746564206368616E6E656C3A00A1
:1001C0000A23232320454E434F44455220284F52B3
:1001D000204D4F544F5229204D414C46554E4354CB
:1001E000494F4E21202323230A00232323232320A6
:1001F000414C4C204F5045524154494F4E5320538F
:10020000544F5050454420544F2050524556454E6F
:100210005420414E592044414D414745212023233C
:100220002323230A000A0A232323232320454D45A1
:100230005247454E43592053485554444F574E203A
:1002400023232323230A000011241FBECFE5D8E077
:10025000DEBFCDBF10E0A0E6B0E0E4E7FAE102C007
:1002600005900D92AA36B107D9F711E0AAE6B0E0E1
:1002700001C01D92A431B107E1F70E9443010C9423
:10028000390D0C9400000E9489070E948B05D09ABA
:10029000D198D89888E690E00E944A0C86E590E0D4
:1002A0000E944A0CD89A81E090E00E949C0BD8985A
:1002B00010926D0010926C0010926F0010926E0000
:1002C00081E00E9443029093860080938500892BF1
:1002D00049F380916C0090916D00019690936D00B0
:1002E00080936C0080E090E00E949C0B81E00E9473
:1002F00043029093860080938500892B51F72091CB
:100300006C0030916D0084E690E0AC01249FC00148
:10031000259F900D349F900D11246AE370E00E9498
:10032000F00CCB0170936F0060936E006AE00E9446
:10033000280C84E590E00E944A0C80916E00909118
:100340006F00099748F48091700090917100853694
:10035000910510F4019607C0809170009091710092
:10036000009769F0019790937100809370008091DD
:10037000700090917100089710F089E001C080E052
:100380000E94FC018FCF8091B200843010F0109257
:10039000B200089584E08093B200089587B38C770B
:1003A00087BB88B38C7788BB2091870023FF02C06E
:1003B000BF9AC79A24FF02C0B99AC19A25FF02C00A
:1003C000B89AC09A84B38F7884BB85B38F7885BB85
:1003D00084B3922F9295907F9077892B84BB85B3BD
:1003E000892B85BB9091B200992319F4922F21118A
:1003F00091E09093B2000895809387000E94CE010F
:100400000895C098B898000096B38091870085FF42
:1004100002C0B89AC09A9170892F99270895AE9812
:10042000A698000093B38091870082FF02C0A69A2D
:10043000AE9A9074892F9927089508959093690032
:100440008093680008951F938091E8008333C8F07B
:100450000E940102182F0E940F02982F80919E0087
:10046000811721F48091F700891749F010939E00BD
:100470009093F700E0916800F0916900099510925F
:10048000E8001F910895369B03C080E090E0089536
:10049000806487B986ED86B93699FECF349A84B1E7
:1004A00095B10895806487B986ED86B90895369927
:1004B00056C020918300233051F1243028F421309C
:1004C00099F02230E0F408C0253089F1253038F168
:1004D000263009F041C033C084B195B19093FB0040
:1004E0008093FA0086E407C084B195B1909300012F
:1004F0008093FF0085E487B986ED86B92DC084B16D
:1005000095B19093F1008093F00083E4F4CF84B12F
:1005100095B19093BC008093BB0082E4ECCF84B192
:1005200095B19093E2008093E10080E4E4CF84B140
:1005300095B1909389008093880081E4DCCF84B1E9
:1005400095B1909386008093850087E487B986ED06
:1005500086B91092830008952F5F20938300089539
:100560001F920F920FB60F9211248F939F93809139
:10057000F5009091F60001969093F6008093F500B7
:100580008091ED009091EE0001969093EE008093A3
:10059000ED009F918F910F900FBE0F901F901895B7
:1005A0001F920F920FB60F9211248F939F938091F9
:1005B000E9009091EA0001969093EA008093E900A7
:1005C0008091C3009091C40001969093C4008093E1
:1005D000C3009F918F910F900FBE0F901F901895A1
:1005E000089590936700809366000895893C08F011
:1005F00088EC99279093A4008093A300693C08F0AD
:1006000068EC862F99279093A2008093A10008950B
:10061000982F80937600109272008150823018F4E7
:1006200081E080937200913019F481E090E007C07E
:1006300020E030E0933011F421E030E0C9018093F4
:100640007300089520E030E080918400837011F4FD
:1006500021E030E0C90108951092A4001092A30097
:100660001092A2001092A1001092AE001092AD0064
:100670001092E7001092E600809184008C7F8093B6
:1006800084008093F900E0916600F091670009957D
:100690000895282F633D08F062ED862F99279093E7
:1006A000C2008093C100822F233D08F082ED99277C
:1006B0009093B4008093B300089580937400609386
:1006C00075008093720060937300882311F0AA9ADA
:1006D00001C0AA98662311F0AB9A0895AB980895CB
:1006E000282F03C089B7806889BF8091A80088231C
:1006F000C9F7862F99278F73907033272F73307027
:1007000046E0220F331F4A95E1F73063822B932B8B
:100710009093C6008093C5008091A7008064809369
:10072000A70008951F920F920FB60F9211242F93D6
:100730008F939F93809161008230B0F52091820069
:100740002223C1F02C3338F48091DF009091E00037
:1007500096FD09C006C08091DF009091E00096FFF1
:1007600002C0979803C082B3805882BB2150209367
:10077000820032C08091A8008823A1F097988091D0
:10078000DF009091E000880F991F9093E000809324
:10079000DF0088E7809382008091A80081508093D9
:1007A000A8001AC0979818C08091AC00882391F0D7
:1007B0008091A70080FD05C088B390E4892788BB9D
:1007C00003C085B3805885BB8091AC008150809375
:1007D000AC0002C0C69AAF9A9F918F912F910F9053
:1007E0000FBE0F901F9018951F920F920FB60F9289
:1007F00011248F9380916100833011F0863079F459
:100800008091A70084FD0BC08091A70085FF07C0E1
:10081000B29905C08091F8008F5F8093F80086B38D
:100820008091A7008D7F8093A7008F910F900FBEBE
:100830000F901F9018950895909363008093620025
:1008400008950895909365008093640008958091C1
:10085000BD009091BE00029708F42BC18091A700C3
:1008600084FD06C180916100823009F469C0833043
:1008700030F4882371F0813009F000C111C0853057
:1008800009F4A6C0863009F4BBC0833009F0F6C075
:100890006FC089B78F7789BF9798C69AAF9AEEC015
:1008A0008091A800882351F58091A70086FF14C08D
:1008B0008091C5009091C6009093E0008093DF0086
:1008C0008EE08093A8008091A7008F7B8093A70083
:1008D00089B7806889BF06C089B78F7789BF979825
:1008E000C69AAF9A809181008F5F8093810081507A
:1008F000803138F082E08093610003C089B780685E
:1009000089BF8091A70083FFB9C0E0916200F09198
:1009100063008091FC009091FD0009958091FC009E
:100920009091FD009093B0008093AF001092FD0075
:100930001092FC008091A700877F8093A7009EC043
:1009400089B78F7789BF9798C69AAF9A1092AC00F3
:100950001092F8001092800010927F008091A70002
:100960008E7F80628093A70083E0809381001CC00B
:100970008091AC00882381F4809181008F5F809307
:1009800081008150833040F089B7806889BF8EE153
:100990008093AC00109281008091F800843038F090
:1009A00081E08093DB0085E08093610067C08091E7
:1009B0007F009091800001969093800080937F004B
:1009C0000197409708F45AC01092DB0085E045C0BB
:1009D00089B78F7789BF9798C69AAF9A1092AC0063
:1009E0001092F8001092800010927F008091A70072
:1009F00081628093A70083E08093810086E0D4CF5A
:100A00008091AC00882381F4809181008F5F809376
:100A100081008150833040F089B7806889BF8EE1C2
:100A20008093AC00109281008091F800843030F007
:100A30001092F80081E08093E400B6CF80917F00AF
:100A40009091800001969093800080937F000197A1
:100A50004097A0F01092E40081E08093610089B794
:100A60008F7789BF9798C69AAF9A1092AC0006C04C
:100A70001092800010927F00109281002091DB0084
:100A800080917E00821731F490917D008091E40086
:100A9000981759F020937E008091E40080937D00A8
:100AA000E0916400F091650009951092BE001092EB
:100AB000BD0008951092610089B78F7789BF97981C
:100AC000C69AAF9A1092E4001092DB00089589B79D
:100AD0008F7789BF9798C69AAF9A1092E4001092C8
:100AE000DB0081E08093610008958E989698BB9812
:100AF000C398C698AF9808958E9A969ABB98C39853
:100B000008958E989698BB9AC39A08958E9A969A4D
:100B1000BB9AC39A0895C49A8091B200843018F4A5
:100B200083E08093B2000895C4988091B20084302D
:100B300080F4882319F081E090E009C020E030E0E3
:100B400080918700882311F021E030E0C901809373
:100B5000B20008951F920F920FB60F9211242F9397
:100B60003F934F935F936F937F938F939F93AF9335
:100B7000BF938091EF008F5F8093EF008091F20030
:100B80008F5F8093F20081508A3008F447C18091D2
:100B9000C90080FF09C08091CA009091CB000196E6
:100BA0009093CB008093CA008091C90081FF09C057
:100BB0008091CC009091CD0001969093CD008093D0
:100BC000CC008091C90082FF09C08091CE00909135
:100BD000CF0001969093CF008093CE008091C90002
:100BE00083FF09C08091D0009091D100019690932D
:100BF000D1008093D0008091C90084FF09C080910A
:100C0000D2009091D30001969093D3008093D200AC
:100C10008091C90085FF09C08091D4009091D500D2
:100C200001969093D5008093D4008091C90086FFEF
:100C300009C08091D6009091D70001969093D7007B
:100C40008093D6008091C90087FF09C08091D800A9
:100C50009091D90001969093D9008093D80080910B
:100C6000E5008F5F8093E5008150893CE8F080913A
:100C7000C3009091C4009093F4008093F30080919E
:100C8000ED009091EE009093B6008093B500109225
:100C9000C4001092C3001092EE001092ED0081E0AB
:100CA0008093B1001092E5004091B200433008F00B
:100CB00052C0423081F580918700882301F58091F0
:100CC0007B0090917C009C012F5F3F4F30937C0014
:100CD00020937B0068EC70E00E94F00C892BD9F522
:100CE000215A3F4028F0B998C1981092B20029C00B
:100CF00087B3842787BB88B3842788BB2CC084FD37
:100D000002C0B998C19810927C0010927B0081E0DB
:100D10008093B20020C080917B0090917C002EE2F5
:100D2000813E920798F0413049F41092B2008091D0
:100D3000870084FD06C0B998C19803C082E0809303
:100D4000B20010927C0010927B0005C00196909337
:100D50007C0080937B008091BD009091BE00039742
:100D600048F48091BD009091BE0001969093BE0022
:100D70008093BD008091DD00873318F48F5F8093EE
:100D8000DD008091E800843328F48091E8008F5FD3
:100D90008093E8008091E3008F5F8093E3008150AF
:100DA0008330D0F18091DE00482F55272091C1007B
:100DB0003091C2004217530759F04217530714F4F9
:100DC0008F5F01C081508093DE008091DE008ABD7C
:100DD0008091FE00482F55272091B3003091B40038
:100DE0004217530759F04217530714F48F5F01C09D
:100DF00081508093FE008091FE0088BD8091FE00AE
:100E0000882321F48091DE00882319F082EA8FBDC7
:100E100001C01FBC1092E3001092F2008091A70065
:100E200083FD52C020917700309178004091790085
:100E30004F5F40937900463190F036FD09C035FF91
:100E400007C03093FD002093FC0088608093A700CA
:100E50008091A7008F7E8093A70020E030E09091E2
:100E60007A0086B3892782FF24C0909590937A00F8
:100E7000473068F48091A7008F7E8093A70080910F
:100E8000A70080618093A70020E030E00CC021150E
:100E90003105A1F04F3068F08091A7008061809308
:100EA000A70036FD02C0220F331F92FF216010926F
:100EB0007900309378002093770006C08091A700D6
:100EC00080618093A700EFCFBF91AF919F918F91E9
:100ED0007F916F915F914F913F912F910F900FBE36
:100EE0000F901F901895982F1092EF008091EF00AF
:100EF0008917E0F3089501C0000001972FEF8F3F9D
:100F00009207D1F70895D49ADC9A0895DC98D49882
:100F100008951BBA18BA15BA81E082BB1ABA88E5DF
:100F200087BB8CE884BB82EF81BBF894C598BD9ADF
:100F300087B397980E94750510BC8CE089B91BB8DF
:100F400086E880BD88E98AB917B886E186B910BEFF
:100F500085E085BF80EE8BBF14BE8AE083BF83E649
:100F60008CBF82EA8FBD81E18EBD82ED90E097BD9E
:100F700086BD1ABC18BC60E080E00E945D0389E079
:100F800085BD8EE683BD82E089BF8091A700816028
:100F90008093A70081E080936100789408951F9367
:100FA000182FF89497980E9475051092B40010922B
:100FB000B3001092C2001092C1001092AE001092C5
:100FC000AD001092E7001092E6001092FE00109221
:100FD000DE001ABC18BC1FBC0E94940585E292E09A
:100FE0000E944A0C8AEE91E00E944A0C812F8150A7
:100FF0008230C0F480EC91E00E944A0C8EEA91E0CD
:101000000E944A0C113019F489EA91E002C083EA87
:1010100091E00E944A0C82E791E00E944A0C83E32F
:1010200091E00CC0133061F486E191E00E944A0C1B
:1010300086EE90E00E944A0C8FEA90E00E944A0CF3
:1010400089E890E00E944A0C86E30E94FC012AE0B5
:1010500016C0000001973FEF8F3F9307D1F7215053
:1010600071F480E00E94FC012AE00CC000000197AE
:101070003FEF8F3F9307D1F7215021F4E5CF8FEF5A
:101080009FE7E7CF8EEF9FEFF1CF8091DD008233B6
:1010900008F47CC01092DD008091DA00882309F00A
:1010A00041C08091FF00909100018350934038F43B
:1010B0008091F0009091F10083509340F0F0809186
:1010C000DC008F5F8093DC008AE08093DA0010926E
:1010D000B4001092B3001092C2001092C10010929E
:1010E000AE001092AD001092E7001092E6008091E1
:1010F00084008460809384000895809184008B7FB5
:10110000809384008091A900853628F01092DC003D
:101110001092A90007C08091DC00833018F083E0B2
:101120000E94CF078091FF009091000186399105C0
:1011300098F48091B5009091B600892B69F4809164
:10114000A3009091A400892B39F08091FE0087398B
:1011500018F081E00E94CF078091F0009091F1009B
:101160008639910598F48091F3009091F400892BD1
:1011700069F48091A1009091A200892B39F08091AF
:10118000DE00873918F082E00E94CF078091B1001D
:10119000882309F4B1C18091DA00882309F0A7C13E
:1011A0008091DC00882331F08091A9008F5F8093CB
:1011B000A90002C01092A9004091840041FF38C0EC
:1011C0002091F5003091F60080919F009091A00051
:1011D0002817390780F01092A4001092A3001092F3
:1011E000AE001092AD001092B4001092B3004D7F8B
:1011F000409384001DC02091F5003091F60080914D
:10120000B7009091B8002817390790F08091A3009B
:101210009091A400969587959093A4008093A30045
:10122000469730F486E190E09093A4008093A30069
:101230004091840040FF38C02091E9003091EA00DD
:101240008091BF009091C0002817390780F010925C
:10125000A2001092A1001092E7001092E6001092F6
:10126000C2001092C1004E7F409384001DC02091A7
:10127000E9003091EA008091EB009091EC00281792
:10128000390790F08091A1009091A20096958795E2
:101290009093A2008093A100469730F486E190E0FD
:1012A0009093A2008093A1004091720080917400FD
:1012B000481739F49091730080917500981709F4DC
:1012C00079C02091A3003091A4002115310531F49B
:1012D0008091A1009091A200892B61F13093A6002A
:1012E0002093A5008091A1009091A2009093BA0054
:1012F0008093B9001092A4001092A3001092A20053
:101300001092A1008091AD009091AE0062E070E07B
:101310000E94040D7093AE006093AD008091E600D2
:101320009091E70062E070E00E94040D7093E70086
:101330006093E6008091F3009091F4004A97D0F416
:101340008091B5009091B6004A97A0F48091A300D7
:101350009091A400892B71F48091A1009091A2003A
:10136000892B41F41092C2001092C1001092B40077
:101370001092B3008FB58823E9F460917300842F35
:101380000E945D038091A5009091A6009093A40017
:101390008093A3008091B9009091BA009093A2002D
:1013A0008093A1001092AE001092AD001092E70061
:1013B0001092E6004091A3005091A4008091B500E6
:1013C0009091B6009A01281B390B8091AD00909145
:1013D000AE00280F391F3093AE002093AD0081E09E
:1013E000253A38071CF084EA91E005C02C553E4FA1
:1013F00034F48CE59EEF9093AE008093AD00809125
:10140000B5009091B600892B39F4452B29F4109240
:10141000AE001092AD0018C08091AD009091AE006A
:1014200062E070E00E94040D7093B4006093B3001A
:10143000633D71053CF082ED90E09093B4008093A1
:10144000B30006C077FF04C01092B4001092B3003E
:101450004091A1005091A2008091F3009091F4007E
:101460009A01281B390B8091E6009091E700280F24
:10147000391F3093E7002093E60081E0253A3807D2
:101480001CF084EA91E005C02C553E4F34F48CE505
:101490009EEF9093E7008093E6008091F300909197
:1014A000F400892B39F4452B29F41092E7001092AF
:1014B000E60018C08091E6009091E70062E070E0DD
:1014C0000E94040D7093C2006093C100633D7105DA
:1014D0003CF082ED90E09093C2008093C1000AC07E
:1014E00077FF08C01092C2001092C10003C0815063
:1014F0008093DA001092B100909184008091F900FD
:10150000891739F09093F900E0916600F091670037
:10151000099508950E9457020E9427040E94230201
:101520000E94450808950F931F93CF93DF93382FA0
:10153000162FEA01022F809184008360809384003B
:101540001092EC001092EB001092B8001092B700CD
:10155000373180F0832F9927880F991F481B590B2B
:10156000CA0144979093EC008093EB009093B800ED
:101570008093B700CE0102979093C0008093BF0084
:101580009093A00080939F00C832D105B8F484E105
:1015900090E09093C0008093BF009093A000809350
:1015A0009F008AE090E09093EC008093EB00909392
:1015B000B8008093B700C8E2D0E004C051E0C03961
:1015C000D50798F4393288F0CE019695879596958F
:1015D00087959E01281B390B3093EC002093EB007C
:1015E0003093B8002093B70038E21092F6001092C2
:1015F000F5001092EA001092E900632F832F0E94F9
:10160000F602812F0E940803D093C800C093C70040
:10161000D093AB00C093AA00809184008093F9001E
:10162000E0916600F09167000995002319F406C067
:101630000E948A0A809184008370D1F7DF91CF9154
:101640001F910F910895FF920F931F93CF93DF93F4
:10165000182F062FF22E80918400836080938400DF
:1016600066277727CB01BA0120EB32E040E050E05B
:101670000E94D10C24E630E040E050E00E94170DBB
:10168000E901C901845690409093EC008093EB00EF
:101690009093B8008093B7003093C0002093BF00B0
:1016A0003093A00020939F0028323105B0F484E1EC
:1016B00090E09093C0008093BF009093A00080932F
:1016C0009F008AE090E09093EC008093EB00909371
:1016D000B8008093B700C8E2D0E0612F812F0E944C
:1016E000F602802F0E9408031092F6001092F50077
:1016F0001092EA001092E900D093C800C093C7008E
:10170000D093AB00C093AA00809184008093F9002D
:10171000E0916600F09167000995FF2019F406C07A
:101720000E948A0A809184008370D1F7DF91CF9163
:101730001F910F91FF9008959C0106C01092EF0039
:101740008091EF008A30E0F3215030408FEF2F3F3F
:101750003807A1F708955D9BFECF8CB90895FC0171
:1017600004C05D9BFECF31968CB980818823C9F778
:101770000895FC01E40FF11D05C05D9BFECF31967D
:101780008CB961508081882311F06623B1F70895E8
:101790001F920F920FB60F9211248F939F93EF9386
:1017A000FF93CF93DF93CDB7DEB72197DEBFCDBFD9
:1017B0008CB1898380910101882391F49091030178
:1017C000E92FFF278981EC5FFE4F80839F5F909315
:1017D000030180910201981718F082E080930101C3
:1017E0002196F894DEBFCDBFDF91CF91FF91EF91AD
:1017F0009F918F910F900FBE0F901F901895109290
:10180000030180930201109201010895809101016A
:101810008823E1F30895AC0120E030E008C0FF2701
:10182000DF01AC5FBE4F8C91E40FF51F8083E22F88
:101830002F5F3F4F80910201E81788F381E080938A
:10184000010108951092020181E080930101089541
:101850000F931F93CF93DF93CDB7DEB761970FB68A
:10186000F894DEBF0FBECDBF462F55278E010F5F08
:101870001F4FB8010E94A00CC8010E94AF0B6196D7
:101880000FB6F894DEBF0FBECDBFDF91CF911F9191
:101890000F91089503C05D9BFECF2CB9FC0101960A
:1018A00024912223C1F70895FF920F931F93CF93A2
:1018B000DF93CDB7DEB761970FB6F894DEBF0FBEEA
:1018C000CDBFF42E7727AB018E010F5F1F4FB801FC
:1018D0000E94A00CF80101900020E9F73197E01B6D
:1018E000F10B4F2D4E1B141664F480E341505D9BA9
:1018F000FECF8CB94423D1F7CE0101960E94AF0BE5
:1019000005C041956F2DC8010E94B90B61960FB6B5
:10191000F894DEBF0FBECDBFDF91CF911F910F9125
:10192000FF9008951092030180930201109201012B
:10193000809101018823E1F3CB010E940B0C0895F3
:10194000FB019F01E8944230C4F04532B4F44A30C0
:1019500029F497FB1EF4909581959F4F642F77276C
:101960000E94F00C805D8A330CF0895D8193CB017D
:101970000097A1F716F45DE251931082C9010C940F
:10198000C10CDC01FC01672F71917723E1F73297DD
:1019900004C07C916D9370836291AE17BF07C8F34A
:1019A0000895629FD001739FF001829FE00DF11DA9
:1019B000649FE00DF11D929FF00D839FF00D749FC9
:1019C000F00D659FF00D9927729FB00DE11DF91F75
:1019D000639FB00DE11DF91FBD01CF0111240895D2
:1019E000AA1BBB1B51E107C0AA1FBB1FA617B70745
:1019F00010F0A61BB70B881F991F5A95A9F7809561
:101A00009095BC01CD01089597FB092E07260AD0B9
:101A100077FD04D0E5DF06D000201AF470956195BB
:101A20007F4F0895F6F7909581959F4F0895A1E215
:101A30001A2EAA1BBB1BFD010DC0AA1FBB1FEE1F48
:101A4000FF1FA217B307E407F50720F0A21BB30B93
:101A5000E40BF50B661F771F881F991F1A9469F70F
:101A600060957095809590959B01AC01BD01CF016B
:041A70000895FFCF07
:0A1A740001011B042104F0021D0211
:00000001FF
