:100000000C942F010C944E040C947B040C94A804C3
:100010000C944C010C944C010C944C010C944C012C
:100020000C944C010C944C010C9448060C944C011B
:100030000C944C010C94BB080C944C010C944C0196
:100040000C944C010C944C010C944C010C94680DD4
:100050000C944C01414353205374617475733A00FE
:10006000004932432D4D6173746572004578616DAE
:10007000706C652050726F6772616D2033002323AE
:100080002323232323232323232323232323002363
:100090002323232323232323232323232323230053
:1000A0000A496E7465727275707473202D207061C8
:1000B000727420322E2E2E0A000A0A525036204325
:1000C0004F4E54524F4C204D333220493243204D35
:1000D0006173746572204578616D706C6520507233
:1000E0006F6772616D210A000A49324320455252FE
:1000F0004F52202D205457492053544154453A2003
:1001000030780023002A00207C204144313A00202E
:100110007C204144303A00207C204241543A002067
:100120007C204D43523A00207C204D434C3A002025
:100130007C204C53523A004C534C3A00207C2044D3
:100140005354523A004453544C3A00207C204452B9
:100150003A00207C20444C3A00207C2056523A0041
:10016000207C20564C3A00207C2050523A00504CC3
:100170003A000A526561642053656E736F722056AF
:10018000616C7565733A0A000A426174746572792C
:1001900020566F6C74616765206973204F4B210A8C
:1001A00000560A000A4261747465727920566F6CB9
:1001B00074616765206C6F773A2000207C204B6566
:1001C0007920436F64653A00207C2044657669633A
:1001D0006520416464726573733A0052433520525E
:1001E0006563657074696F6E202D2D3E20546F67B6
:1001F000676C65204269743A0046524545210052B9
:100200004947485421004C45465421004D49444437
:100210004C45210042756D70657273206368616E94
:100220006765643A20004D4944002020204D494430
:10023000444C452100524947485400207C20523A02
:1002400020004C454654004143532073746174654B
:10025000206368616E676564204C3A2000001124B9
:100260001FBECFE5D8E0DEBFCDBF10E0A0E6B0E016
:10027000ECE3FEE102C005900D92A637B107D9F775
:1002800011E0A6E7B0E001C01D92A734B107E1F785
:100290000E94C9020C941D0F0C9400001F93182F8C
:1002A00088EE90E00E943D0960E1812F99270E942D
:1002B0001B098AE00E949E081F9108950F931F93C7
:1002C0008C018BED91E00E943D09812F86958695EA
:1002D00086958170805D0E949E0888EC91E00E9466
:1002E0003D09902F9295969596959370812F8770E2
:1002F000880F880F892B6AE099270E941B098BEBD6
:1003000091E00E943D096AE0C8018F7390700E94DD
:100310001B098AE00E949E081F910F91089584E1B5
:1003200092E00E943D09809132019091030188235F
:1003300071F09923B1F08CE092E00E943D0964E6EF
:1003400070E088EC0E94E80684E690E01EC09923E5
:1003500019F086E092E007C089EF91E00E943D0924
:1003600016C08FEF91E00E943D0962E370E088ECD7
:100370000E94E8068CE390E00E94120764E170E0BE
:1003800086E90E94E80684E190E00E9412078AE074
:100390000E949E0808950E94B709089580917600F2
:1003A000882341F041E06EE080E00E94D405109285
:1003B000760008956EE080E00E94B50583E091E04C
:1003C0000E94850581E08093760008950E94680A66
:1003D00082E791E00E943D098EE691E00E943D098E
:1003E00080911E0143E06AE099270E94470987E651
:1003F00091E00E943D098091240143E06AE0992741
:100400000E94470980E691E00E943D0980911F010A
:1004100043E06AE099270E94470989E591E00E943C
:100420003D098091310143E06AE099270E94470924
:1004300082E591E00E943D0980911D0143E06AE060
:1004400099270E9447098BE491E00E943D09809121
:100450001C0143E06AE099270E9447098AE00E9454
:100460009E0885E491E00E943D0945E06AE08091A4
:100470002F01909130010E9447098CE391E00E9486
:100480003D0945E06AE08091290190912A010E948E
:1004900047098AE00E949E0887E391E00E943D0997
:1004A00044E06AE080912201909123010E94470973
:1004B0008FE291E00E943D0944E06AE080912601CC
:1004C000909127010E94470987E291E00E943D092F
:1004D00044E06AE080913501909136010E9447091D
:1004E0008FE191E00E943D0944E06AE080912D0196
:1004F00090912E010E94470987E191E00E943D09F9
:1005000044E06AE080913301909134010E944709F0
:100510008FE091E00E943D0944E06AE080912B0168
:1005200090912C010E94470987E091E00E943D09CB
:1005300044E06AE080912001909121010E944709E6
:100540008AE00E949E0808958091DB009091DC0073
:10055000855F9140E8F080917700882341F041E089
:100560006FE080E00E94D405109277000DC06FE02C
:1005700080E00E94B50585E091E00E94850581E05C
:10058000809377000E94E6011092DC001092DB005D
:1005900008950E9440070E94BD0789EB90E00E94E9
:1005A0003D0980EA90E00E943D098DEA93E00E94B7
:1005B000A6098FE891E00E9494098EE591E00E94DF
:1005C000A00989E493E00E94AC098EEC91E00E94BE
:1005D000B20988E40E94FD0A8BEC91E00E940C0BAA
:1005E0008EE491E00E94120B60E570E084EB0E94C3
:1005F000E80689E690E00E94120760E570E08CED65
:100600000E94E80689E690E00E9412078FE00E94AF
:100610002F056FE870E08EE790E00E94BD0584EF43
:1006200091E00E9412076CE670E081E690E00E9483
:10063000BD0588EE93E00E94120780E00E942F051E
:1006400022E049E060E08AE00E94E40C21E04BE017
:1006500060E08AE00E94E40C21E04CE060E08AE087
:100660000E94E40C60E670E084E590E00E94BD0525
:100670008091DA0081608093DA008091DA008260F4
:100680008093DA000E94A4020E94580A0E94320B52
:10069000F9CF0F931F93882309F458C084EA91E09F
:1006A0000E943D090091330110913401B80188275F
:1006B00077FD8095982F0E94B10E17FF06C020E0AD
:1006C00030E040E857E40E940C0E2DEC3CEC4CEC82
:1006D00052E40E944E0E2DEC3CEC4CEC5DE30E948B
:1006E0000C0E0E94940EDC01CB0142E06AE00E94F5
:1006F00047098EE20E949E08009133011091340157
:10070000B801882777FD8095982F0E94B10E17FFBA
:1007100006C020E030E040E857E40E940C0E2FE6CF
:1007200032E143E85FE30E944E0E20E030E040E219
:1007300051E40E940C0E0E94940EDC01CB0142E0B9
:100740006AE00E94470981EA91E002C088E891E0EE
:100750000E943D091F910F91089587E492E00E9445
:100760003D0980912501882361F08FE60E949E0853
:100770006CE081E00E94B50582E492E00E9485056C
:1007800008C080E20E949E0844E06CE081E00E9484
:10079000D4058BE392E00E943D098091C50086FF5D
:1007A0000CC08FE60E949E0860E081E00E94B505C3
:1007B00085E392E00E94850508C080E20E949E08C1
:1007C00045E060E081E00E94D40580912501882306
:1007D000B9F080912801882399F08091EB00807F07
:1007E00086608093EB008AE292E00E943D0967E018
:1007F00081E00E94B50586E292E00E9485050AC06C
:100800008091EB00807F8093EB0043E067E081E024
:100810000E94D40580912501882329F08091EB0066
:1008200088608093EB0080912801882329F08091D3
:10083000EB0081608093EB000E94250580912501EB
:100840008823A9F080912801882341F06AE070E0B4
:100850008CE80E94E8068AE090E014C065E070E051
:1008600084E60E94E80685E090E00E9412078091ED
:100870002801882349F065E070E088E70E94E806D7
:1008800085E090E00E9412078AE00E949E08089589
:100890000895909365008093640008951F920F92CD
:1008A0000FB60F9211242F933F934F935F936F9343
:1008B0007F938F939F93AF93BF93EF93FF93E091B9
:1008C0006400F09165000995FF91EF91BF91AF91A0
:1008D0009F918F917F916F915F914F913F912F9158
:1008E0000F900FBE0F901F9018950895909363007E
:1008F0008093620008951F920F920FB60F921124F9
:100900002F933F934F935F936F937F938F939F9317
:10091000AF93BF93EF93FF93E0916200F091630078
:100920000995FF91EF91BF91AF919F918F917F9129
:100930006F915F914F913F912F910F900FBE0F904C
:100940001F9018950895909361008093600008951A
:100950001F920F920FB60F9211242F933F934F9334
:100960005F936F937F938F939F93AF93BF93EF9317
:10097000FF93E0916000F09161000995FF91EF9184
:10098000BF91AF919F918F917F916F915F914F91A7
:100990003F912F910F900FBE0F901F901895369B8F
:1009A00003C080E090E00895806487B986ED86B941
:1009B0003699FECF349A84B195B108958FB9779B5B
:1009C000FECF08958FEF8FB9779BFECF8FB1992718
:1009D00008959C01832F99278FB9779BFECF2FB95C
:1009E000779BFECF0895AC0120E008C0FA01E20F2A
:1009F000F11D80818FB9779BFECF2F5F2617B1F74E
:100A00000895AC0120E09FEF09C09FB9779BFECF0E
:100A1000FA01E20FF11D8FB180832F5F2617A9F72E
:100A20000895C09886E08FB9779BFECFC09A08954D
:100A3000C09885E08FB9779BFECF8FEF8FB9779BFA
:100A4000FECF8FB1C09A992708958091EB008FB99E
:100A5000779BFECF949A00000000949808958F70C1
:100A60009091EB00907F982B9093EB000E942505CE
:100A700008958295807F9091EB009F70982B9093C2
:100A8000EB000E942505C49A81E390E000000197E5
:100A90002FEF8F3F9207D1F7C49808951F93182F17
:100AA00082958F700E943905812F0E94390585E952
:100AB00090E0000001972FEF8F3F9207D1F71F9131
:100AC0000895C3980E944E0585E990E000000197C3
:100AD0002FEF8F3F9207D1F7089581E00E946105C3
:100AE0008BE795E1000001972FEF8F3F9207D1F739
:100AF0000895C39A0E944E0581E390E0000001979B
:100B00002FEF8F3F9207D1F70895CF93DF93EC013A
:100B100002C00E947905FE01219684918823C9F7BD
:100B2000DF91CF910895CF93DF93EC0103C021961D
:100B30000E94790588818823D1F7DF91CF910895AC
:100B40001F93CF93DF93162FEC01C40FD11D04C068
:100B500021960E94790511508881882311F0112374
:100B6000B9F7DF91CF911F9108956068813009F442
:100B7000605C862F0E9461050895EF92FF920F93AB
:100B80001F938C017B010E946D05C8010E948505A1
:100B900060E081E00E94B505C7010E9485051F91B4
:100BA0000F91FF90EF9008951F93142F0E94B505A9
:100BB00003C080E20E9479051150D8F71F91089573
:100BC000CF93DF9381E00E94CF04EC0183E0CC3F20
:100BD000D80750F400000000000081E00E94CF041C
:100BE000C80FD91FD695C795C233D10518F481E037
:100BF00090E01DC082E0C434D80718F482E090E091
:100C000016C082E0CC3BD80718F483E090E00FC018
:100C100083E0C631D80718F484E090E008C0CE53D2
:100C2000D34018F485E090E002C080E090E0DF91CE
:100C3000CF91089580917900882349F00E94E005C2
:100C4000882369F41092790080E090E008950E9472
:100C5000E00580937900882311F09927089580E0BA
:100C600090E008951F9310917800112349F00E949D
:100C7000E005882349F410927800812F992706C057
:100C80000E94E0058093780080E090E01F91089535
:100C90001F920F920FB60F9211248F939F93809102
:100CA000EC008F5F8093EC008091ED008F5F80936C
:100CB000ED0081508A3008F484C08091DA0080FF12
:100CC00009C08091DB009091DC0001969093DC00DC
:100CD0008093DB008091DA0081FF09C08091DD0004
:100CE0009091DE0001969093DE008093DD0080916C
:100CF000DA0082FF09C08091DF009091E000019648
:100D00009093E0008093DF008091DA0083FF09C0B8
:100D10008091E1009091E20001969093E20080932F
:100D2000E1008091DA0084FF09C08091E300909196
:100D3000E40001969093E4008093E3008091DA0050
:100D400085FF09C08091E5009091E600019690939F
:100D5000E6008093E5008091DA0086FF09C080916B
:100D6000E7009091E80001969093E8008093E700F7
:100D70008091DA0087FF09C08091E9009091EA0034
:100D800001969093EA008093E9008091C80080FF6B
:100D900016C08091EE009091EF00892B39F415BCBC
:100DA0008091C8008E7F8093C80009C08091EE00BA
:100DB0009091EF0001979093EF008093EE001092D6
:100DC000ED009F918F910F900FBE0F901F9018957F
:100DD0009091C80091609093C8007093EF00609369
:100DE000EE00809583BD8EE185BD08959091C80089
:100DF0009E7F9093C800982F909593BD882319F0FB
:100E00008EE185BD089515BC08951092EC00282F41
:100E100033272F5F3F4F8091EC0099272817390720
:100E2000D4F708959C0107C01092EC008091EC006B
:100E300099270C97DCF3215030408FEF2F3F380774
:100E400099F70895D09AD89881E090E00E9412070F
:100E5000D0980895CF93DF9380E00E94CF04EC01F7
:100E6000059710F00E942207CE01DF91CF910895DF
:100E700001C0000001972FEF8F3F9207D1F708952F
:100E80001BBA87E088BB8CEF85BB80E682BB1ABAB1
:100E90008BEB87BB14BA82E981BBF89410BC89E163
:100EA00089B91BB886E880BD88E98AB917B886E198
:100EB00086B910BE8FE085BF1BBE14BE8AE083BF1B
:100EC00087EC8CBF15BC8FEF83BD82E089BF80E5C6
:100ED0008DB981E08EB9789408950F931F93462FB2
:100EE000552709EC10E0B8010E94DA0DC8010E94F4
:100EF00093051F910F910895EF92FF920F931F9307
:100F0000CF93DF93CDB7DEB761970FB6F894DEBF0E
:100F10000FBECDBF042F7727AB017E010894E11CE3
:100F2000F11CB7010E94DA0DF70101900020E9F7EA
:100F30003197EE19FF09102F1E1B11165CF411508A
:100F400080E30E9479051123D1F7CE0101960E941A
:100F5000930506C01195412F602FC7010E94A0057F
:100F600061960FB6F894DEBF0FBECDBFDF91CF9173
:100F70001F910F91FF90EF90089583E00E94390533
:100F80008FE496E4000001972FEF8F3F9207D1F78F
:100F900083E00E9439058BE795E1000001972FEF70
:100FA0008F3F9207D1F783E00E9439058BE795E1E7
:100FB000000001972FEF8F3F9207D1F782E00E9448
:100FC00039058BE795E1000001972FEF8F3F9207DE
:100FD000D1F788E20E9461058BE795E10000019757
:100FE0002FEF8F3F9207D1F788E00E9461058BE7D2
:100FF00095E1000001972FEF8F3F9207D1F781E035
:101000000E9461058BE795E1000001972FEF8F3F6C
:101010009207D1F782E00E9461058BE795E100001D
:1010200001972FEF8F3F9207D1F78CE00E94610567
:101030008BE795E1000001972FEF8F3F9207D1F7E3
:101040000895FF920F931F93CF93DF93EC018B01D1
:10105000F42E0E94180580FDFCCF0E941105C09857
:1010600082E08FB9779BFECFCE010E94E9046F2DFD
:10107000C8010E94F304C09ADF91CF911F910F9194
:10108000FF9008951F93CF93DF93EC01162F0E94DA
:10109000180580FDFCCF0E941105C09882E08FB931
:1010A000779BFECFCE010E94E9041FB9779BFECF4C
:1010B000C09ADF91CF911F910895C09884E08FB9B5
:1010C000779BFECFC09A08951F93CF93DF939C0127
:1010D000EB01142FC09883E08FB9779BFECFC90135
:1010E0000E94E904612FCE010E940105C09ADF91A0
:1010F000CF911F9108959C01C09883E08FB9779B91
:10110000FECFC9010E94E9048FEF8FB9779BFECF14
:101110008FB1C09A992708958FEF8FB9779BFECF33
:101120009FB18FEF8FB9779BFECF2FB1892F992772
:10113000982F88273327822B932B08955D9BFECF12
:101140008CB90895FC0104C05D9BFECF31968CB92B
:1011500080818823C9F70895FC01E40FF11D05C0C3
:101160005D9BFECF31968CB961508081882311F050
:101170006623B1F708951F920F920FB60F921124B4
:101180008F939F93EF93FF93CF93DF93CDB7DEB70A
:101190002197DEBFCDBF8CB189838091F000882379
:1011A00091F49091F200E92FFF278981ED50FF4FD4
:1011B00080839F5F9093F2008091F100981718F060
:1011C00082E08093F0002196F894DEBFCDBFDF91DE
:1011D000CF91FF91EF919F918F910F900FBE0F9044
:1011E0001F9018951092F2008093F1001092F00079
:1011F00008958091F0008823E1F30895AC0120E088
:1012000030E008C0FF27DF01AD50BF4F8C91E40FE5
:10121000F51F8083E22F2F5F3F4F8091F100E81789
:1012200088F381E08093F00008951092F10081E04E
:101230008093F00008950F931F93CF93DF93CDB762
:10124000DEB761970FB6F894DEBF0FBECDBF462F55
:1012500055278E010F5F1F4FB8010E94DA0DC8019C
:101260000E94A20861960FB6F894DEBF0FBECDBFF4
:10127000DF91CF911F910F91089503C05D9BFECF29
:101280002CB9FC01019624912223C1F70895FF9205
:101290000F931F93CF93DF93CDB7DEB761970FB650
:1012A000F894DEBF0FBECDBFF42E7727AB018E01C1
:1012B0000F5F1F4FB8010E94DA0DF8010190002066
:1012C000E9F73197E01BF10B4F2D4E1B141664F418
:1012D00080E341505D9BFECF8CB94423D1F7CE0112
:1012E00001960E94A20805C041956F2DC8010E9479
:1012F000AC0861960FB6F894DEBF0FBECDBFDF918C
:10130000CF911F910F91FF9008951092F20080935A
:10131000F1001092F0008091F0008823E1F3CB01FE
:101320000E94FE08089508959093690080936800D4
:101330000895089590937100809370000895089522
:1013400090936B0080936A000895089590936700CE
:10135000809366000895089590936D0080936C00CB
:101360000895089590936F0080936E0008950F93F1
:101370001F93CF93DF93CDB7DEB722970FB6F894C4
:10138000DEBF0FBECDBF882319F080E090E085C09E
:1013900063E087E391E00E94E40B209137018091A4
:1013A000C50082272093C500082F1127C801807629
:1013B0009070892B81F0229526952770822F81705D
:1013C000809325012695217020932801E0916600E5
:1013D000F09167000995C80186709070892B81F0A3
:1013E0008091C5008695982F917090930301869502
:1013F000817080933201E0916800F0916900099555
:1014000003FF1BC06BE18AE00E94A30C42E0BE0117
:101410006F5F7F4F8AE00E943D0C8981992736E0FB
:10142000880F991F3A95E1F72A813327E0916A00E6
:10143000F0916B00822B932B099500FF1FC065E193
:101440008AE00E94A30C42E0BE016F5F7F4F8AE0FA
:101450000E943D0C8A819927982F8827298133275C
:10146000822B932B90933401809333018091C5009C
:10147000E0916C00F0916D008170099580913801C8
:101480008093C70083FF05C0E0916E00F0916F006C
:10149000099510927A0081E090E022960FB6F894B8
:1014A000DEBF0FBECDBFDF91CF911F910F91089589
:1014B00080917A00882359F4829B09C081E080934F
:1014C0007A0023E040E060E08AE00E94BE0B0895CD
:1014D00028E144E051E063E08AE00E94020C809140
:1014E000040180931E018091050180932401809165
:1014F000060180931F018091070180933101809143
:10150000080180931D018091090180931C012091A5
:101510000A0180910B019927982F8827820F911D2E
:101520009093300180932F0120910C0180910D0147
:101530009927982F8827820F911D90932A018093D5
:10154000290120910E0180910F019927982F88275A
:10155000820F911D9093230180932201209110010D
:10156000809111019927982F8827820F911D9093C0
:101570002701809326012091120180911301992760
:10158000982F8827820F911D909336018093350103
:1015900020911401809115019927982F8827820F97
:1015A000911D90932E0180932D0120911601809121
:1015B00017019927982F8827820F911D9093340146
:1015C0008093330120911801809119019927982F58
:1015D0008827820F911D90932C0180932B012091DD
:1015E0001A0180911B019927982F8827820F911D3E
:1015F00090932101809320010895F89480B911B847
:101600008FEF83B984E086BF80917B0081608093F7
:101610007B007894089508959093730080937200EE
:101620000895089590937500809374000895CF9362
:10163000DF93CDB7DEB721970FB6F894DEBF0FBEAC
:10164000CDBF86E9898389818150898389818F3FD4
:10165000D1F721960FB6F894DEBF0FBECDBFDF9154
:10166000CF91089506B600FC67C080917B0080FF93
:1016700045C080918200882309F45EC08130A1F4C6
:101680000E94170B92E09093C40080917D0080939C
:10169000840080917E008093850010927B0085EA13
:1016A00086BF9093820008958230B1F40E94170B98
:1016B00080917F008F5F8093C40080917D00816066
:1016C00080937D008093840010927B0085EA86BF22
:1016D00083E0809382000895833071F51092820038
:1016E00080918000909181002FEF8F3F920721F130
:1016F000E0917200F09173000995089506B600FC20
:10170000FDCF80917C00282F33272223A9F010924F
:10171000820080917B00816080937B0010927D002D
:10172000109281001092800010927F00E09174006E
:10173000F0917500822F09950895FF920F931F93E2
:10174000182F062FF42E02C00E94320B06B600FCA2
:10175000FBCF809182008823B9F782E080938200DA
:1017600010937D00802F99279093810080938000B3
:10177000F0927F001F910F91FF900895EF92FF92DA
:101780000F931F93E82E162F042FF22E02C00E94F3
:10179000320B06B600FCFBCF809182008823B9F79C
:1017A00081E080938200812F99279093810080931C
:1017B0008000E0927D0000937E00F0927F001F91F8
:1017C0000F91FF90EF900895AC0106B600FCFDCF9D
:1017D00080917B0080FF0EC020E00AC0E22FFF272F
:1017E000DA01AE0FBF1FEC56FF4F81818C932F5F44
:1017F0002617A1F7089506B600FCFDCF80917C0066
:1018000099270895FF920F931F93CF93DF93082F8B
:10181000F62EEA01122F02C00E94320B06B600FC1F
:10182000FBCF809182008823B9F781E0809382000A
:1018300000937D008FEF9FEF909381008093800055
:10184000F0927E0010937F0002C00E94320B06B619
:1018500000FCFBCF809182008823B9F780917B0048
:1018600080FF05C01F5F612FCE010E94E40BDF9156
:10187000CF911F910F91FF9008950F931F93CF93D6
:10188000DF93082FEB01142F02C00E94320B06B623
:1018900000FCFBCF809182008823B9F70E94170BD0
:1018A00082E08093820000937D008FEF9FEF909302
:1018B00081008093800010937F0002C00E94320B51
:1018C00006B600FCFBCF809182008823B9F7809197
:1018D0007B0080FF05C01F5F612FCE010E94E40BDB
:1018E000DF91CF911F910F9108951F93182F02C080
:1018F0000E94320B06B600FCFBCF80918200882349
:10190000B9F70E94170B82E08093820010937D004C
:101910008FEF9FEF909381008093800081E0809310
:101920007F000E94320B809182008823D1F7809142
:101930007B0080FD03C080E090E003C080919500B3
:1019400099271F9108950F931F93182F062F02C0F8
:101950000E94320B06B600FCFBCF809182008823E8
:10196000B9F70E94170B82E08093C40010938400A3
:101970000093850010927B0085EA86BF1F910F912E
:101980000895FF920F931F93182F062FF42E02C075
:101990000E94320B06B600FCFBCF809182008823A8
:1019A000B9F70E94170B83E08093C4001093840062
:1019B00000938500F092860010927B0085EA86BF36
:1019C0001F910F91FF900895EF92FF920F931F9335
:1019D000182F062FF42EE22E02C00E94320B06B6FC
:1019E00000FCFBCF809182008823B9F70E94170B7F
:1019F00084E08093C4001093840000938500F092EB
:101A00008600E092870010927B0085EA86BF1F91D6
:101A10000F91FF90EF900895DF92EF92FF920F9356
:101A20001F93182FF62EE42ED22E02C00E94320BE6
:101A300006B600FCFBCF809182008823B9F70E9494
:101A4000170B85E08093C40010938400F09285000A
:101A5000E0928600D09287000093880010927B006D
:101A600085EA86BF1F910F91FF90EF90DF90089558
:101A70000F931F93CF93DF93082FEB01142F02C016
:101A80000E94320B06B600FCFBCF809182008823B7
:101A9000B9F70E94170B412F4F5F4093C40000938A
:101AA000840090E00AC0E92FFF27DE01AE0FBF1FC0
:101AB0008C91EC57FF4F81839F5F9417A1F7109291
:101AC0007B0085EA86BFDF91CF911F910F9108952A
:101AD0001F920F920FB60F9211242F933F938F9363
:101AE0009F93EF93FF9381B18832C9F0893240F41C
:101AF000803199F0883199F0883009F04BC00DC0E1
:101B0000803441F1813420F4883309F043C03DC072
:101B10008035A9F08835F1F52BC0109283009091A3
:101B200083008091C400981750F5E92FFF27EC57E8
:101B3000FF4F808183B99F5F9093830017C080918E
:101B4000830093B1E82FFF27EC56FF4F90838F5F00
:101B5000809383002091830033278091C4009927CC
:101B600001972817390714F485EC18C085E816C0CA
:101B700083B1E0918300FF27EC56FF4F8083809173
:101B80007B00816080937B0008C081B180937C00E2
:101B900085EA04C081B180937C0084E986BFFF910F
:101BA000EF919F918F913F912F910F900FBE0F90CA
:101BB0001F901895FB019F01E8944230C4F0453214
:101BC000B4F44A3029F497FB1EF4909581959F4F09
:101BD000642F77270E94090F805D8A330CF0895D9E
:101BE0008193CB010097A1F716F45DE25193108227
:101BF000C9010C94FB0DDC01FC01672F7191772367
:101C0000E1F7329704C07C916D9370836291AE17B7
:101C1000BF07C8F308955058192ECDD001D0B0C0D9
:101C2000BA176207730784079507B1F188F40EF4B9
:101C300010940B2EBA2FA02D062E622F202D072ECA
:101C4000732F302D082E842F402D092E952F502DC7
:101C5000FF275523B9F0591B49F0573E98F0469598
:101C600037952795A795F0405395C9F776F0BA0FA9
:101C7000621F731F841F30F4879577956795B7951A
:101C8000F040939517FA0F2E0895BF1BBB27BA0B90
:101C9000620B730B840BF6CFDEF6B9C08CD001D08B
:101CA0006FC0552359F0992369F09F575F57951BD3
:101CB00033F442F4903811F4915805C079C091582A
:101CC0009F3F09F4A4C0BB27112462177307840740
:101CD00030F4660F771F881FBB1F915098F311D007
:101CE0000F920FD00F920DD0A0E8261737074807A4
:101CF0001B0609F0A048BA2F602D7F918F91002418
:101D00000895A0E80024621773078407B10528F03E
:101D1000621B730B840BB1090A2A660F771F881F99
:101D2000BB1FA69581F7089597FB51D09F3738F0D8
:101D3000FEE9F91B982F872F762F6B2F05C064C003
:101D40009695879577956795F150D0F73EF49095E5
:101D50008095709561957F4F8F4F9F4F0895E894C0
:101D600003C097FB0EF4F3DFB62F672F782F892F70
:101D70009EE9002405C09A95BB0F661F771F881F38
:101D800011249923A1F08823B2F79F3F59F0BB0F8C
:101D900048F421F4002011F460FF04C06F5F7F4F0E
:101DA0008F4F9F4F881F9795879597F908952CC05F
:101DB0009FEF80EC0895052E092607FA440F551F62
:101DC0005F3F79F0AA27A51708F051E04795880FE3
:101DD000991F9F3F31F0BB27B91708F091E0879515
:101DE00008959F919F911124E3CF97FB880F991F2E
:101DF0009F3F31F0BB27B91708F091E08795089510
:101E00009F919F911124D4CF662777278827992700
:101E10000895AA1BBB1B51E107C0AA1FBB1FA61731
:101E2000B70710F0A61BB70B881F991F5A95A9F783
:0C1E300080959095BC01CD010895FFCF76
:101E3C00A20475044804A50993099F09AB09B109CB
:061E4C0099090B0B110BBC
:00000001FF
